:1000000009C016C015C014C013C012C023C010C050
:100010000FC00FC011241FBECFE9CDBF20E0A0E666
:10002000B0E001C01D92A336B207E1F768D0DAC094
:10003000E7CF1F920F920FB60F9211248F93F8946F
:1000400085B18093600078948F910F900FBE0F90D0
:100050001F9018951F920F920FB60F9211248F9335
:100060009F93F89480916100909162000196909323
:1000700062008093610012BE78949F918F910F90DF
:100080000FBE0F901F901895F89480E886BD16BC9F
:1000900008958FEE86BF89B7846089BF12BE83B78B
:1000A000816083BF78940895F89480916100909165
:1000B000620078940895F89480916000789408958F
:1000C000422391E009F490E0622309F092608223D8
:1000D00009F0946098BB089588B3887F88BB87B384
:1000E000876087BB0895399A3D9A86B1876086B943
:1000F000339A359A379AA49A369A78940895C4DF39
:10010000EBDFF1DFC6DF812C912CD0E010E0CFEFE8
:10011000512C612C712C00E89AE0E92EF12C00237F
:1001200009F444C0202F452D662D872DC9DFBCDF83
:100130006C01A02EB12CB8DF8C199D098A159B0586
:1001400098F5B2DF881999098E159F05A0F38AE00A
:10015000E816F10480F3CF3F31F4D1111EC01F3FE8
:1001600041F01F5F1EC01F3F71F4D11106C0CC23A8
:1001700041F0C150D0E01FEF14C0C11112C0DF3FE9
:1001800041F0DF5F08C0C1110AC0DF3F51F4112305
:10019000F1F01150DFEFC0E004C01F3F11F0112358
:1001A00091F082DF4C01C7CF0695B9CF84DFE82EEE
:1001B000F12C83E0EE0CFF1C8A95E1F75D2E612E99
:1001C0007C2E00E8AFCFDF3F31F4CF3F41F0CF5F6F
:1001D000DFEF10E0E6CFCF3F21F7DD2311F3D15061
:0801E000CFEFDFCFF894FFCF51
:00000001FF
